{
    "contractName": "Election",
    "abi": [
        {
            "inputs": [],
            "stateMutability": "nonpayable",
            "type": "constructor"
        },
        {
            "anonymous": false,
            "inputs": [
                {
                    "indexed": true,
                    "internalType": "address",
                    "name": "voter",
                    "type": "address"
                },
                {
                    "indexed": true,
                    "internalType": "address",
                    "name": "candidate",
                    "type": "address"
                }
            ],
            "name": "Voted",
            "type": "event"
        },
        {
            "inputs": [],
            "name": "candidateCount",
            "outputs": [
                {
                    "internalType": "uint256",
                    "name": "",
                    "type": "uint256"
                }
            ],
            "stateMutability": "view",
            "type": "function"
        },
        {
            "inputs": [
                {
                    "internalType": "uint256",
                    "name": "",
                    "type": "uint256"
                }
            ],
            "name": "candidates",
            "outputs": [
                {
                    "internalType": "address",
                    "name": "id",
                    "type": "address"
                },
                {
                    "internalType": "uint256",
                    "name": "voteCount",
                    "type": "uint256"
                },
                {
                    "internalType": "string",
                    "name": "candidateName",
                    "type": "string"
                }
            ],
            "stateMutability": "view",
            "type": "function"
        },
        {
            "inputs": [],
            "name": "elecadmin",
            "outputs": [
                {
                    "internalType": "address",
                    "name": "",
                    "type": "address"
                }
            ],
            "stateMutability": "view",
            "type": "function"
        },
        {
            "inputs": [],
            "name": "getResults",
            "outputs": [
                {
                    "internalType": "address",
                    "name": "",
                    "type": "address"
                },
                {
                    "internalType": "uint256",
                    "name": "",
                    "type": "uint256"
                },
                {
                    "internalType": "string",
                    "name": "",
                    "type": "string"
                }
            ],
            "stateMutability": "view",
            "type": "function"
        },
        {
            "inputs": [
                {
                    "internalType": "uint256",
                    "name": "num",
                    "type": "uint256"
                }
            ],
            "name": "setStart",
            "outputs": [],
            "stateMutability": "nonpayable",
            "type": "function"
        },
        {
            "inputs": [
                {
                    "internalType": "uint256",
                    "name": "num",
                    "type": "uint256"
                }
            ],
            "name": "setStop",
            "outputs": [],
            "stateMutability": "nonpayable",
            "type": "function"
        },
        {
            "inputs": [],
            "name": "startTime",
            "outputs": [
                {
                    "internalType": "uint256",
                    "name": "",
                    "type": "uint256"
                }
            ],
            "stateMutability": "view",
            "type": "function"
        },
        {
            "inputs": [],
            "name": "stopTime",
            "outputs": [
                {
                    "internalType": "uint256",
                    "name": "",
                    "type": "uint256"
                }
            ],
            "stateMutability": "view",
            "type": "function"
        },
        {
            "inputs": [
                {
                    "internalType": "uint256",
                    "name": "_candidateId",
                    "type": "uint256"
                }
            ],
            "name": "vote",
            "outputs": [],
            "stateMutability": "nonpayable",
            "type": "function"
        },
        {
            "inputs": [
                {
                    "internalType": "address",
                    "name": "",
                    "type": "address"
                }
            ],
            "name": "voters",
            "outputs": [
                {
                    "internalType": "bool",
                    "name": "",
                    "type": "bool"
                }
            ],
            "stateMutability": "view",
            "type": "function"
        }
    ],
    "bytecode": "608060405234801561000f575f80fd5b50600280546001600160a01b0319163317905561078f8061002f5f395ff3fe608060405234801561000f575f80fd5b506004361061009b575f3560e01c8063a3ec138d11610063578063a3ec138d14610103578063a9a981a314610135578063c1bf57e31461013e578063c1f127e214610169578063f6a03ebf1461017c575f80fd5b80630121b93f1461009f57806303ff5e73146100b45780633477ee2e146100d05780634717f97c146100f257806378e97925146100fa575b5f80fd5b6100b26100ad366004610656565b61018f565b005b6100bd60055481565b6040519081526020015b60405180910390f35b6100e36100de366004610656565b6102ea565b6040516100c79392919061066d565b6100e361039f565b6100bd60045481565b6101256101113660046106d0565b5f6020819052908152604090205460ff1681565b60405190151581526020016100c7565b6100bd60035481565b600254610151906001600160a01b031681565b6040516001600160a01b0390911681526020016100c7565b6100b2610177366004610656565b610500565b6100b261018a366004610656565b6105b0565b60045442116101dc5760405162461bcd60e51b8152602060048201526014602482015273115b1958dd1a5bdb881b9bdd081cdd185c9d195960621b60448201526064015b60405180910390fd5b600554421061021d5760405162461bcd60e51b815260206004820152600d60248201526c22b632b1ba34b7b71037bb32b960991b60448201526064016101d3565b335f9081526020819052604090205460ff161561026c5760405162461bcd60e51b815260206004820152600d60248201526c105b1c9958591e481d9bdd1959609a1b60448201526064016101d3565b335f90815260208181526040808320805460ff191660019081179091558484529182905282200180549161029f836106fd565b90915550505f818152600160205260408082205490516001600160a01b039091169133917fce0c7a2a940807f7dc2ce7a615c2532e915e6c0ac9a08bc4ed9d515a710a53e29190a350565b600160208190525f91825260409091208054918101546002820180546001600160a01b039094169391929161031e90610721565b80601f016020809104026020016040519081016040528092919081815260200182805461034a90610721565b80156103955780601f1061036c57610100808354040283529160200191610395565b820191905f5260205f20905b81548152906001019060200180831161037857829003601f168201915b5050505050905083565b5f8060606005544210156103ee5760405162461bcd60e51b815260206004820152601660248201527508ad8cac6e8d2dedc40f2cae840e8de40ccd2dcd2e6d60531b60448201526064016101d3565b5f8060015b6003548111610440575f818152600160208190526040909120015482101561042e575f81815260016020819052604090912001549092509050815b80610438816106fd565b9150506103f3565b505f828152600160208190526040909120805491810154600290910180546001600160a01b0390931692819061047590610721565b80601f01602080910402602001604051908101604052809291908181526020018280546104a190610721565b80156104ec5780601f106104c3576101008083540402835291602001916104ec565b820191905f5260205f20905b8154815290600101906020018083116104cf57829003601f168201915b505050505090509450945094505050909192565b6002546001600160a01b0316331461055a5760405162461bcd60e51b815260206004820152601d60248201527f456c656374696f6e2061646d696e206f6e6c79206f7065726174696f6e00000060448201526064016101d3565b428111801561056a575060045481115b6105ab5760405162461bcd60e51b815260206004820152601260248201527153746f70206174206c617465722074696d6560701b60448201526064016101d3565b600555565b6002546001600160a01b0316331461060a5760405162461bcd60e51b815260206004820152601d60248201527f456c656374696f6e2061646d696e206f6e6c79206f7065726174696f6e00000060448201526064016101d3565b4281116106515760405162461bcd60e51b81526020600482015260156024820152745374617274206174206561726c6965722074696d6560581b60448201526064016101d3565b600455565b5f60208284031215610666575f80fd5b5035919050565b60018060a01b03841681525f60208460208401526060604084015283518060608501525f5b818110156106ae57858101830151858201608001528201610692565b505f608082860101526080601f19601f83011685010192505050949350505050565b5f602082840312156106e0575f80fd5b81356001600160a01b03811681146106f6575f80fd5b9392505050565b5f6001820161071a57634e487b7160e01b5f52601160045260245ffd5b5060010190565b600181811c9082168061073557607f821691505b60208210810361075357634e487b7160e01b5f52602260045260245ffd5b5091905056fea26469706673582212200033ff4040c2cdf6acce1c929e07bd6128423bd42bb4b300f8029852b1e92e3264736f6c63430008170033",
    "sourcePath": "/home/vulcan/Desktop/4.2 Units/BCT 2410 - Seminar Presentations/blockchain-voting-system/Ethereum/contracts/election.sol",
    "compiler": {
        "name": "solc",
        "version": "0.8.23+commit.f704f362"
    },
    "functionHashes": {
        "candidateCount()": "a9a981a3",
        "candidates(uint256)": "3477ee2e",
        "elecadmin()": "c1bf57e3",
        "getResults()": "4717f97c",
        "setStart(uint256)": "f6a03ebf",
        "setStop(uint256)": "c1f127e2",
        "startTime()": "78e97925",
        "stopTime()": "03ff5e73",
        "vote(uint256)": "0121b93f",
        "voters(address)": "a3ec138d"
    },
    "gasEstimates": {
        "creation": {
            "codeDepositCost": "387000",
            "executionCost": "24657",
            "totalCost": "411657"
        },
        "external": {
            "candidateCount()": "2305",
            "candidates(uint256)": "infinite",
            "elecadmin()": "2380",
            "getResults()": "infinite",
            "setStart(uint256)": "24572",
            "setStop(uint256)": "26681",
            "startTime()": "2372",
            "stopTime()": "2306",
            "vote(uint256)": "59034",
            "voters(address)": "2496"
        }
    }
}